{
  "_format": "hh-sol-artifact-1",
  "contractName": "YourCollectible_2",
  "sourceName": "contracts/YourCollectible_2.sol",
  "abi": [
    {
      "inputs": [],
      "stateMutability": "nonpayable",
      "type": "constructor"
    },
    {
      "anonymous": false,
      "inputs": [
        {
          "indexed": true,
          "internalType": "address",
          "name": "owner",
          "type": "address"
        },
        {
          "indexed": true,
          "internalType": "address",
          "name": "approved",
          "type": "address"
        },
        {
          "indexed": true,
          "internalType": "uint256",
          "name": "tokenId",
          "type": "uint256"
        }
      ],
      "name": "Approval",
      "type": "event"
    },
    {
      "anonymous": false,
      "inputs": [
        {
          "indexed": true,
          "internalType": "address",
          "name": "owner",
          "type": "address"
        },
        {
          "indexed": true,
          "internalType": "address",
          "name": "operator",
          "type": "address"
        },
        {
          "indexed": false,
          "internalType": "bool",
          "name": "approved",
          "type": "bool"
        }
      ],
      "name": "ApprovalForAll",
      "type": "event"
    },
    {
      "anonymous": false,
      "inputs": [
        {
          "indexed": true,
          "internalType": "address",
          "name": "previousOwner",
          "type": "address"
        },
        {
          "indexed": true,
          "internalType": "address",
          "name": "newOwner",
          "type": "address"
        }
      ],
      "name": "OwnershipTransferred",
      "type": "event"
    },
    {
      "anonymous": false,
      "inputs": [
        {
          "indexed": true,
          "internalType": "address",
          "name": "from",
          "type": "address"
        },
        {
          "indexed": true,
          "internalType": "address",
          "name": "to",
          "type": "address"
        },
        {
          "indexed": true,
          "internalType": "uint256",
          "name": "tokenId",
          "type": "uint256"
        }
      ],
      "name": "Transfer",
      "type": "event"
    },
    {
      "inputs": [
        {
          "internalType": "address",
          "name": "to",
          "type": "address"
        },
        {
          "internalType": "uint256",
          "name": "tokenId",
          "type": "uint256"
        }
      ],
      "name": "approve",
      "outputs": [],
      "stateMutability": "nonpayable",
      "type": "function"
    },
    {
      "inputs": [
        {
          "internalType": "address",
          "name": "owner",
          "type": "address"
        }
      ],
      "name": "balanceOf",
      "outputs": [
        {
          "internalType": "uint256",
          "name": "",
          "type": "uint256"
        }
      ],
      "stateMutability": "view",
      "type": "function"
    },
    {
      "inputs": [
        {
          "internalType": "address",
          "name": "from",
          "type": "address"
        },
        {
          "internalType": "address",
          "name": "to",
          "type": "address"
        },
        {
          "internalType": "uint256",
          "name": "tokenID",
          "type": "uint256"
        }
      ],
      "name": "claim",
      "outputs": [],
      "stateMutability": "nonpayable",
      "type": "function"
    },
    {
      "inputs": [
        {
          "internalType": "uint256",
          "name": "tokenId",
          "type": "uint256"
        }
      ],
      "name": "getApproved",
      "outputs": [
        {
          "internalType": "address",
          "name": "",
          "type": "address"
        }
      ],
      "stateMutability": "view",
      "type": "function"
    },
    {
      "inputs": [
        {
          "internalType": "address",
          "name": "owner",
          "type": "address"
        },
        {
          "internalType": "address",
          "name": "operator",
          "type": "address"
        }
      ],
      "name": "isApprovedForAll",
      "outputs": [
        {
          "internalType": "bool",
          "name": "",
          "type": "bool"
        }
      ],
      "stateMutability": "view",
      "type": "function"
    },
    {
      "inputs": [
        {
          "internalType": "address",
          "name": "to",
          "type": "address"
        },
        {
          "internalType": "string",
          "name": "tokenURI",
          "type": "string"
        }
      ],
      "name": "mintItem",
      "outputs": [
        {
          "internalType": "uint256",
          "name": "",
          "type": "uint256"
        }
      ],
      "stateMutability": "nonpayable",
      "type": "function"
    },
    {
      "inputs": [],
      "name": "name",
      "outputs": [
        {
          "internalType": "string",
          "name": "",
          "type": "string"
        }
      ],
      "stateMutability": "view",
      "type": "function"
    },
    {
      "inputs": [],
      "name": "owner",
      "outputs": [
        {
          "internalType": "address",
          "name": "",
          "type": "address"
        }
      ],
      "stateMutability": "view",
      "type": "function"
    },
    {
      "inputs": [
        {
          "internalType": "uint256",
          "name": "tokenId",
          "type": "uint256"
        }
      ],
      "name": "ownerOf",
      "outputs": [
        {
          "internalType": "address",
          "name": "",
          "type": "address"
        }
      ],
      "stateMutability": "view",
      "type": "function"
    },
    {
      "inputs": [],
      "name": "renounceOwnership",
      "outputs": [],
      "stateMutability": "nonpayable",
      "type": "function"
    },
    {
      "inputs": [
        {
          "internalType": "address",
          "name": "from",
          "type": "address"
        },
        {
          "internalType": "address",
          "name": "to",
          "type": "address"
        },
        {
          "internalType": "uint256",
          "name": "tokenId",
          "type": "uint256"
        }
      ],
      "name": "safeTransferFrom",
      "outputs": [],
      "stateMutability": "nonpayable",
      "type": "function"
    },
    {
      "inputs": [
        {
          "internalType": "address",
          "name": "from",
          "type": "address"
        },
        {
          "internalType": "address",
          "name": "to",
          "type": "address"
        },
        {
          "internalType": "uint256",
          "name": "tokenId",
          "type": "uint256"
        },
        {
          "internalType": "bytes",
          "name": "_data",
          "type": "bytes"
        }
      ],
      "name": "safeTransferFrom",
      "outputs": [],
      "stateMutability": "nonpayable",
      "type": "function"
    },
    {
      "inputs": [
        {
          "internalType": "address",
          "name": "operator",
          "type": "address"
        },
        {
          "internalType": "bool",
          "name": "approved",
          "type": "bool"
        }
      ],
      "name": "setApprovalForAll",
      "outputs": [],
      "stateMutability": "nonpayable",
      "type": "function"
    },
    {
      "inputs": [
        {
          "internalType": "bytes4",
          "name": "interfaceId",
          "type": "bytes4"
        }
      ],
      "name": "supportsInterface",
      "outputs": [
        {
          "internalType": "bool",
          "name": "",
          "type": "bool"
        }
      ],
      "stateMutability": "view",
      "type": "function"
    },
    {
      "inputs": [],
      "name": "symbol",
      "outputs": [
        {
          "internalType": "string",
          "name": "",
          "type": "string"
        }
      ],
      "stateMutability": "view",
      "type": "function"
    },
    {
      "inputs": [
        {
          "internalType": "uint256",
          "name": "index",
          "type": "uint256"
        }
      ],
      "name": "tokenByIndex",
      "outputs": [
        {
          "internalType": "uint256",
          "name": "",
          "type": "uint256"
        }
      ],
      "stateMutability": "view",
      "type": "function"
    },
    {
      "inputs": [
        {
          "internalType": "address",
          "name": "owner",
          "type": "address"
        },
        {
          "internalType": "uint256",
          "name": "index",
          "type": "uint256"
        }
      ],
      "name": "tokenOfOwnerByIndex",
      "outputs": [
        {
          "internalType": "uint256",
          "name": "",
          "type": "uint256"
        }
      ],
      "stateMutability": "view",
      "type": "function"
    },
    {
      "inputs": [
        {
          "internalType": "uint256",
          "name": "tokenId",
          "type": "uint256"
        }
      ],
      "name": "tokenURI",
      "outputs": [
        {
          "internalType": "string",
          "name": "",
          "type": "string"
        }
      ],
      "stateMutability": "view",
      "type": "function"
    },
    {
      "inputs": [],
      "name": "totalSupply",
      "outputs": [
        {
          "internalType": "uint256",
          "name": "",
          "type": "uint256"
        }
      ],
      "stateMutability": "view",
      "type": "function"
    },
    {
      "inputs": [
        {
          "internalType": "address",
          "name": "from",
          "type": "address"
        },
        {
          "internalType": "address",
          "name": "to",
          "type": "address"
        },
        {
          "internalType": "uint256",
          "name": "tokenId",
          "type": "uint256"
        }
      ],
      "name": "transferFrom",
      "outputs": [],
      "stateMutability": "nonpayable",
      "type": "function"
    },
    {
      "inputs": [
        {
          "internalType": "address",
          "name": "newOwner",
          "type": "address"
        }
      ],
      "name": "transferOwnership",
      "outputs": [],
      "stateMutability": "nonpayable",
      "type": "function"
    }
  ],
  "bytecode": "0x60806040523480156200001157600080fd5b506040518060400160405280601181526020017f596f7572436f6c6c65637469626c655f320000000000000000000000000000008152506040518060400160405280600381526020017f594342000000000000000000000000000000000000000000000000000000000081525081600090805190602001906200009692919062000171565b508060019080519060200190620000af92919062000171565b5050506000620000c46200016960201b60201c565b905080600b60006101000a81548173ffffffffffffffffffffffffffffffffffffffff021916908373ffffffffffffffffffffffffffffffffffffffff1602179055508073ffffffffffffffffffffffffffffffffffffffff16600073ffffffffffffffffffffffffffffffffffffffff167f8be0079c531659141344cd1fd0a4f28419497f9722a3daafe3b4186f6b6457e060405160405180910390a35062000286565b600033905090565b8280546200017f9062000250565b90600052602060002090601f016020900481019282620001a35760008555620001ef565b82601f10620001be57805160ff1916838001178555620001ef565b82800160010185558215620001ef579182015b82811115620001ee578251825591602001919060010190620001d1565b5b509050620001fe919062000202565b5090565b5b808211156200021d57600081600090555060010162000203565b5090565b7f4e487b7100000000000000000000000000000000000000000000000000000000600052602260045260246000fd5b600060028204905060018216806200026957607f821691505b6020821081141562000280576200027f62000221565b5b50919050565b6133fa80620002966000396000f3fe608060405234801561001057600080fd5b50600436106101375760003560e01c80636352211e116100b8578063996cba681161007c578063996cba6814610362578063a22cb4651461037e578063b88d4fde1461039a578063c87b56dd146103b6578063e985e9c5146103e6578063f2fde38b1461041657610137565b80636352211e146102bc57806370a08231146102ec578063715018a61461031c5780638da5cb5b1461032657806395d89b411461034457610137565b806318160ddd116100ff57806318160ddd1461020657806323b872dd146102245780632f745c591461024057806342842e0e146102705780634f6ccce71461028c57610137565b806301ffc9a71461013c57806306fdde031461016c578063081812fc1461018a578063095ea7b3146101ba578063110bcd45146101d6575b600080fd5b61015660048036038101906101519190611f3a565b610432565b6040516101639190611f82565b60405180910390f35b610174610444565b6040516101819190612036565b60405180910390f35b6101a4600480360381019061019f919061208e565b6104d6565b6040516101b191906120fc565b60405180910390f35b6101d460048036038101906101cf9190612143565b61055b565b005b6101f060048036038101906101eb91906122b8565b610673565b6040516101fd9190612323565b60405180910390f35b61020e6106ab565b60405161021b9190612323565b60405180910390f35b61023e6004803603810190610239919061233e565b6106b8565b005b61025a60048036038101906102559190612143565b610718565b6040516102679190612323565b60405180910390f35b61028a6004803603810190610285919061233e565b6107bd565b005b6102a660048036038101906102a1919061208e565b6107dd565b6040516102b39190612323565b60405180910390f35b6102d660048036038101906102d1919061208e565b61084e565b6040516102e391906120fc565b60405180910390f35b61030660048036038101906103019190612391565b610900565b6040516103139190612323565b60405180910390f35b6103246109b8565b005b61032e610af5565b60405161033b91906120fc565b60405180910390f35b61034c610b1f565b6040516103599190612036565b60405180910390f35b61037c6004803603810190610377919061233e565b610bb1565b005b610398600480360381019061039391906123ea565b610bc1565b005b6103b460048036038101906103af91906124cb565b610d42565b005b6103d060048036038101906103cb919061208e565b610da4565b6040516103dd9190612036565b60405180910390f35b61040060048036038101906103fb919061254e565b610db6565b60405161040d9190611f82565b60405180910390f35b610430600480360381019061042b9190612391565b610e4a565b005b600061043d82610ff6565b9050919050565b606060008054610453906125bd565b80601f016020809104026020016040519081016040528092919081815260200182805461047f906125bd565b80156104cc5780601f106104a1576101008083540402835291602001916104cc565b820191906000526020600020905b8154815290600101906020018083116104af57829003601f168201915b5050505050905090565b60006104e182611070565b610520576040517f08c379a000000000000000000000000000000000000000000000000000000000815260040161051790612661565b60405180910390fd5b6004600083815260200190815260200160002060009054906101000a900473ffffffffffffffffffffffffffffffffffffffff169050919050565b60006105668261084e565b90508073ffffffffffffffffffffffffffffffffffffffff168373ffffffffffffffffffffffffffffffffffffffff1614156105d7576040517f08c379a00000000000000000000000000000000000000000000000000000000081526004016105ce906126f3565b60405180910390fd5b8073ffffffffffffffffffffffffffffffffffffffff166105f66110dc565b73ffffffffffffffffffffffffffffffffffffffff16148061062557506106248161061f6110dc565b610db6565b5b610664576040517f08c379a000000000000000000000000000000000000000000000000000000000815260040161065b90612785565b60405180910390fd5b61066e83836110e4565b505050565b600061067f600c61119d565b600061068b600c6111b3565b905061069784826111c1565b6106a1818461138f565b8091505092915050565b6000600880549050905090565b6106c96106c36110dc565b82611403565b610708576040517f08c379a00000000000000000000000000000000000000000000000000000000081526004016106ff90612817565b60405180910390fd5b6107138383836114e1565b505050565b600061072383610900565b8210610764576040517f08c379a000000000000000000000000000000000000000000000000000000000815260040161075b906128a9565b60405180910390fd5b600660008473ffffffffffffffffffffffffffffffffffffffff1673ffffffffffffffffffffffffffffffffffffffff168152602001908152602001600020600083815260200190815260200160002054905092915050565b6107d883838360405180602001604052806000815250610d42565b505050565b60006107e76106ab565b8210610828576040517f08c379a000000000000000000000000000000000000000000000000000000000815260040161081f9061293b565b60405180910390fd5b6008828154811061083c5761083b61295b565b5b90600052602060002001549050919050565b6000806002600084815260200190815260200160002060009054906101000a900473ffffffffffffffffffffffffffffffffffffffff169050600073ffffffffffffffffffffffffffffffffffffffff168173ffffffffffffffffffffffffffffffffffffffff1614156108f7576040517f08c379a00000000000000000000000000000000000000000000000000000000081526004016108ee906129fc565b60405180910390fd5b80915050919050565b60008073ffffffffffffffffffffffffffffffffffffffff168273ffffffffffffffffffffffffffffffffffffffff161415610971576040517f08c379a000000000000000000000000000000000000000000000000000000000815260040161096890612a8e565b60405180910390fd5b600360008373ffffffffffffffffffffffffffffffffffffffff1673ffffffffffffffffffffffffffffffffffffffff168152602001908152602001600020549050919050565b6109c06110dc565b73ffffffffffffffffffffffffffffffffffffffff166109de610af5565b73ffffffffffffffffffffffffffffffffffffffff1614610a34576040517f08c379a0000000000000000000000000000000000000000000000000000000008152600401610a2b90612afa565b60405180910390fd5b600073ffffffffffffffffffffffffffffffffffffffff16600b60009054906101000a900473ffffffffffffffffffffffffffffffffffffffff1673ffffffffffffffffffffffffffffffffffffffff167f8be0079c531659141344cd1fd0a4f28419497f9722a3daafe3b4186f6b6457e060405160405180910390a36000600b60006101000a81548173ffffffffffffffffffffffffffffffffffffffff021916908373ffffffffffffffffffffffffffffffffffffffff160217905550565b6000600b60009054906101000a900473ffffffffffffffffffffffffffffffffffffffff16905090565b606060018054610b2e906125bd565b80601f0160208091040260200160405190810160405280929190818152602001828054610b5a906125bd565b8015610ba75780601f10610b7c57610100808354040283529160200191610ba7565b820191906000526020600020905b815481529060010190602001808311610b8a57829003601f168201915b5050505050905090565b610bbc8383836114e1565b505050565b610bc96110dc565b73ffffffffffffffffffffffffffffffffffffffff168273ffffffffffffffffffffffffffffffffffffffff161415610c37576040517f08c379a0000000000000000000000000000000000000000000000000000000008152600401610c2e90612b66565b60405180910390fd5b8060056000610c446110dc565b73ffffffffffffffffffffffffffffffffffffffff1673ffffffffffffffffffffffffffffffffffffffff16815260200190815260200160002060008473ffffffffffffffffffffffffffffffffffffffff1673ffffffffffffffffffffffffffffffffffffffff16815260200190815260200160002060006101000a81548160ff0219169083151502179055508173ffffffffffffffffffffffffffffffffffffffff16610cf16110dc565b73ffffffffffffffffffffffffffffffffffffffff167f17307eab39ab6107e8899845ad3d59bd9653f200f220920489ca2b5937696c3183604051610d369190611f82565b60405180910390a35050565b610d53610d4d6110dc565b83611403565b610d92576040517f08c379a0000000000000000000000000000000000000000000000000000000008152600401610d8990612817565b60405180910390fd5b610d9e8484848461173d565b50505050565b6060610daf82611799565b9050919050565b6000600560008473ffffffffffffffffffffffffffffffffffffffff1673ffffffffffffffffffffffffffffffffffffffff16815260200190815260200160002060008373ffffffffffffffffffffffffffffffffffffffff1673ffffffffffffffffffffffffffffffffffffffff16815260200190815260200160002060009054906101000a900460ff16905092915050565b610e526110dc565b73ffffffffffffffffffffffffffffffffffffffff16610e70610af5565b73ffffffffffffffffffffffffffffffffffffffff1614610ec6576040517f08c379a0000000000000000000000000000000000000000000000000000000008152600401610ebd90612afa565b60405180910390fd5b600073ffffffffffffffffffffffffffffffffffffffff168173ffffffffffffffffffffffffffffffffffffffff161415610f36576040517f08c379a0000000000000000000000000000000000000000000000000000000008152600401610f2d90612bf8565b60405180910390fd5b8073ffffffffffffffffffffffffffffffffffffffff16600b60009054906101000a900473ffffffffffffffffffffffffffffffffffffffff1673ffffffffffffffffffffffffffffffffffffffff167f8be0079c531659141344cd1fd0a4f28419497f9722a3daafe3b4186f6b6457e060405160405180910390a380600b60006101000a81548173ffffffffffffffffffffffffffffffffffffffff021916908373ffffffffffffffffffffffffffffffffffffffff16021790555050565b60007f780e9d63000000000000000000000000000000000000000000000000000000007bffffffffffffffffffffffffffffffffffffffffffffffffffffffff1916827bffffffffffffffffffffffffffffffffffffffffffffffffffffffff191614806110695750611068826118eb565b5b9050919050565b60008073ffffffffffffffffffffffffffffffffffffffff166002600084815260200190815260200160002060009054906101000a900473ffffffffffffffffffffffffffffffffffffffff1673ffffffffffffffffffffffffffffffffffffffff1614159050919050565b600033905090565b816004600083815260200190815260200160002060006101000a81548173ffffffffffffffffffffffffffffffffffffffff021916908373ffffffffffffffffffffffffffffffffffffffff160217905550808273ffffffffffffffffffffffffffffffffffffffff166111578361084e565b73ffffffffffffffffffffffffffffffffffffffff167f8c5be1e5ebec7d5bd14f71427d1e84f3dd0314c0f7b2291e5b200ac8c7c3b92560405160405180910390a45050565b6001816000016000828254019250508190555050565b600081600001549050919050565b600073ffffffffffffffffffffffffffffffffffffffff168273ffffffffffffffffffffffffffffffffffffffff161415611231576040517f08c379a000000000000000000000000000000000000000000000000000000000815260040161122890612c64565b60405180910390fd5b61123a81611070565b1561127a576040517f08c379a000000000000000000000000000000000000000000000000000000000815260040161127190612cd0565b60405180910390fd5b611286600083836119cd565b6001600360008473ffffffffffffffffffffffffffffffffffffffff1673ffffffffffffffffffffffffffffffffffffffff16815260200190815260200160002060008282546112d69190612d1f565b92505081905550816002600083815260200190815260200160002060006101000a81548173ffffffffffffffffffffffffffffffffffffffff021916908373ffffffffffffffffffffffffffffffffffffffff160217905550808273ffffffffffffffffffffffffffffffffffffffff16600073ffffffffffffffffffffffffffffffffffffffff167fddf252ad1be2c89b69c2b068fc378daa952ba7f163c4a11628f55a4df523b3ef60405160405180910390a45050565b61139882611070565b6113d7576040517f08c379a00000000000000000000000000000000000000000000000000000000081526004016113ce90612de7565b60405180910390fd5b80600a600084815260200190815260200160002090805190602001906113fe929190611e2b565b505050565b600061140e82611070565b61144d576040517f08c379a000000000000000000000000000000000000000000000000000000000815260040161144490612e79565b60405180910390fd5b60006114588361084e565b90508073ffffffffffffffffffffffffffffffffffffffff168473ffffffffffffffffffffffffffffffffffffffff1614806114c757508373ffffffffffffffffffffffffffffffffffffffff166114af846104d6565b73ffffffffffffffffffffffffffffffffffffffff16145b806114d857506114d78185610db6565b5b91505092915050565b8273ffffffffffffffffffffffffffffffffffffffff166115018261084e565b73ffffffffffffffffffffffffffffffffffffffff1614611557576040517f08c379a000000000000000000000000000000000000000000000000000000000815260040161154e90612f0b565b60405180910390fd5b600073ffffffffffffffffffffffffffffffffffffffff168273ffffffffffffffffffffffffffffffffffffffff1614156115c7576040517f08c379a00000000000000000000000000000000000000000000000000000000081526004016115be90612f9d565b60405180910390fd5b6115d28383836119cd565b6115dd6000826110e4565b6001600360008573ffffffffffffffffffffffffffffffffffffffff1673ffffffffffffffffffffffffffffffffffffffff168152602001908152602001600020600082825461162d9190612fbd565b925050819055506001600360008473ffffffffffffffffffffffffffffffffffffffff1673ffffffffffffffffffffffffffffffffffffffff16815260200190815260200160002060008282546116849190612d1f565b92505081905550816002600083815260200190815260200160002060006101000a81548173ffffffffffffffffffffffffffffffffffffffff021916908373ffffffffffffffffffffffffffffffffffffffff160217905550808273ffffffffffffffffffffffffffffffffffffffff168473ffffffffffffffffffffffffffffffffffffffff167fddf252ad1be2c89b69c2b068fc378daa952ba7f163c4a11628f55a4df523b3ef60405160405180910390a4505050565b6117488484846114e1565b611754848484846119d2565b611793576040517f08c379a000000000000000000000000000000000000000000000000000000000815260040161178a90613063565b60405180910390fd5b50505050565b60606117a482611070565b6117e3576040517f08c379a00000000000000000000000000000000000000000000000000000000081526004016117da906130f5565b60405180910390fd5b6000600a60008481526020019081526020016000208054611803906125bd565b80601f016020809104026020016040519081016040528092919081815260200182805461182f906125bd565b801561187c5780601f106118515761010080835404028352916020019161187c565b820191906000526020600020905b81548152906001019060200180831161185f57829003601f168201915b50505050509050600061188d611b69565b90506000815114156118a35781925050506118e6565b6000825111156118d85780826040516020016118c0929190613151565b604051602081830303815290604052925050506118e6565b6118e184611ba6565b925050505b919050565b60007f80ac58cd000000000000000000000000000000000000000000000000000000007bffffffffffffffffffffffffffffffffffffffffffffffffffffffff1916827bffffffffffffffffffffffffffffffffffffffffffffffffffffffff191614806119b657507f5b5e139f000000000000000000000000000000000000000000000000000000007bffffffffffffffffffffffffffffffffffffffffffffffffffffffff1916827bffffffffffffffffffffffffffffffffffffffffffffffffffffffff1916145b806119c657506119c582611c4d565b5b9050919050565b505050565b60006119f38473ffffffffffffffffffffffffffffffffffffffff16611cb7565b15611b5c578373ffffffffffffffffffffffffffffffffffffffff1663150b7a02611a1c6110dc565b8786866040518563ffffffff1660e01b8152600401611a3e94939291906131ca565b602060405180830381600087803b158015611a5857600080fd5b505af1925050508015611a8957506040513d601f19601f82011682018060405250810190611a86919061322b565b60015b611b0c573d8060008114611ab9576040519150601f19603f3d011682016040523d82523d6000602084013e611abe565b606091505b50600081511415611b04576040517f08c379a0000000000000000000000000000000000000000000000000000000008152600401611afb90613063565b60405180910390fd5b805181602001fd5b63150b7a0260e01b7bffffffffffffffffffffffffffffffffffffffffffffffffffffffff1916817bffffffffffffffffffffffffffffffffffffffffffffffffffffffff191614915050611b61565b600190505b949350505050565b60606040518060400160405280601581526020017f68747470733a2f2f697066732e696f2f697066732f0000000000000000000000815250905090565b6060611bb182611070565b611bf0576040517f08c379a0000000000000000000000000000000000000000000000000000000008152600401611be7906132ca565b60405180910390fd5b6000611bfa611b69565b90506000815111611c1a5760405180602001604052806000815250611c45565b80611c2484611cca565b604051602001611c35929190613151565b6040516020818303038152906040525b915050919050565b60007f01ffc9a7000000000000000000000000000000000000000000000000000000007bffffffffffffffffffffffffffffffffffffffffffffffffffffffff1916827bffffffffffffffffffffffffffffffffffffffffffffffffffffffff1916149050919050565b600080823b905060008111915050919050565b60606000821415611d12576040518060400160405280600181526020017f30000000000000000000000000000000000000000000000000000000000000008152509050611e26565b600082905060005b60008214611d44578080611d2d906132ea565b915050600a82611d3d9190613362565b9150611d1a565b60008167ffffffffffffffff811115611d6057611d5f61218d565b5b6040519080825280601f01601f191660200182016040528015611d925781602001600182028036833780820191505090505b5090505b60008514611e1f57600182611dab9190612fbd565b9150600a85611dba9190613393565b6030611dc69190612d1f565b60f81b818381518110611ddc57611ddb61295b565b5b60200101907effffffffffffffffffffffffffffffffffffffffffffffffffffffffffffff1916908160001a905350600a85611e189190613362565b9450611d96565b8093505050505b919050565b828054611e37906125bd565b90600052602060002090601f016020900481019282611e595760008555611ea0565b82601f10611e7257805160ff1916838001178555611ea0565b82800160010185558215611ea0579182015b82811115611e9f578251825591602001919060010190611e84565b5b509050611ead9190611eb1565b5090565b5b80821115611eca576000816000905550600101611eb2565b5090565b6000604051905090565b600080fd5b600080fd5b60007fffffffff0000000000000000000000000000000000000000000000000000000082169050919050565b611f1781611ee2565b8114611f2257600080fd5b50565b600081359050611f3481611f0e565b92915050565b600060208284031215611f5057611f4f611ed8565b5b6000611f5e84828501611f25565b91505092915050565b60008115159050919050565b611f7c81611f67565b82525050565b6000602082019050611f976000830184611f73565b92915050565b600081519050919050565b600082825260208201905092915050565b60005b83811015611fd7578082015181840152602081019050611fbc565b83811115611fe6576000848401525b50505050565b6000601f19601f8301169050919050565b600061200882611f9d565b6120128185611fa8565b9350612022818560208601611fb9565b61202b81611fec565b840191505092915050565b600060208201905081810360008301526120508184611ffd565b905092915050565b6000819050919050565b61206b81612058565b811461207657600080fd5b50565b60008135905061208881612062565b92915050565b6000602082840312156120a4576120a3611ed8565b5b60006120b284828501612079565b91505092915050565b600073ffffffffffffffffffffffffffffffffffffffff82169050919050565b60006120e6826120bb565b9050919050565b6120f6816120db565b82525050565b600060208201905061211160008301846120ed565b92915050565b612120816120db565b811461212b57600080fd5b50565b60008135905061213d81612117565b92915050565b6000806040838503121561215a57612159611ed8565b5b60006121688582860161212e565b925050602061217985828601612079565b9150509250929050565b600080fd5b600080fd5b7f4e487b7100000000000000000000000000000000000000000000000000000000600052604160045260246000fd5b6121c582611fec565b810181811067ffffffffffffffff821117156121e4576121e361218d565b5b80604052505050565b60006121f7611ece565b905061220382826121bc565b919050565b600067ffffffffffffffff8211156122235761222261218d565b5b61222c82611fec565b9050602081019050919050565b82818337600083830152505050565b600061225b61225684612208565b6121ed565b90508281526020810184848401111561227757612276612188565b5b612282848285612239565b509392505050565b600082601f83011261229f5761229e612183565b5b81356122af848260208601612248565b91505092915050565b600080604083850312156122cf576122ce611ed8565b5b60006122dd8582860161212e565b925050602083013567ffffffffffffffff8111156122fe576122fd611edd565b5b61230a8582860161228a565b9150509250929050565b61231d81612058565b82525050565b60006020820190506123386000830184612314565b92915050565b60008060006060848603121561235757612356611ed8565b5b60006123658682870161212e565b93505060206123768682870161212e565b925050604061238786828701612079565b9150509250925092565b6000602082840312156123a7576123a6611ed8565b5b60006123b58482850161212e565b91505092915050565b6123c781611f67565b81146123d257600080fd5b50565b6000813590506123e4816123be565b92915050565b6000806040838503121561240157612400611ed8565b5b600061240f8582860161212e565b9250506020612420858286016123d5565b9150509250929050565b600067ffffffffffffffff8211156124455761244461218d565b5b61244e82611fec565b9050602081019050919050565b600061246e6124698461242a565b6121ed565b90508281526020810184848401111561248a57612489612188565b5b612495848285612239565b509392505050565b600082601f8301126124b2576124b1612183565b5b81356124c284826020860161245b565b91505092915050565b600080600080608085870312156124e5576124e4611ed8565b5b60006124f38782880161212e565b94505060206125048782880161212e565b935050604061251587828801612079565b925050606085013567ffffffffffffffff81111561253657612535611edd565b5b6125428782880161249d565b91505092959194509250565b6000806040838503121561256557612564611ed8565b5b60006125738582860161212e565b92505060206125848582860161212e565b9150509250929050565b7f4e487b7100000000000000000000000000000000000000000000000000000000600052602260045260246000fd5b600060028204905060018216806125d557607f821691505b602082108114156125e9576125e861258e565b5b50919050565b7f4552433732313a20617070726f76656420717565727920666f72206e6f6e657860008201527f697374656e7420746f6b656e0000000000000000000000000000000000000000602082015250565b600061264b602c83611fa8565b9150612656826125ef565b604082019050919050565b6000602082019050818103600083015261267a8161263e565b9050919050565b7f4552433732313a20617070726f76616c20746f2063757272656e74206f776e6560008201527f7200000000000000000000000000000000000000000000000000000000000000602082015250565b60006126dd602183611fa8565b91506126e882612681565b604082019050919050565b6000602082019050818103600083015261270c816126d0565b9050919050565b7f4552433732313a20617070726f76652063616c6c6572206973206e6f74206f7760008201527f6e6572206e6f7220617070726f76656420666f7220616c6c0000000000000000602082015250565b600061276f603883611fa8565b915061277a82612713565b604082019050919050565b6000602082019050818103600083015261279e81612762565b9050919050565b7f4552433732313a207472616e736665722063616c6c6572206973206e6f74206f60008201527f776e6572206e6f7220617070726f766564000000000000000000000000000000602082015250565b6000612801603183611fa8565b915061280c826127a5565b604082019050919050565b60006020820190508181036000830152612830816127f4565b9050919050565b7f455243373231456e756d657261626c653a206f776e657220696e646578206f7560008201527f74206f6620626f756e6473000000000000000000000000000000000000000000602082015250565b6000612893602b83611fa8565b915061289e82612837565b604082019050919050565b600060208201905081810360008301526128c281612886565b9050919050565b7f455243373231456e756d657261626c653a20676c6f62616c20696e646578206f60008201527f7574206f6620626f756e64730000000000000000000000000000000000000000602082015250565b6000612925602c83611fa8565b9150612930826128c9565b604082019050919050565b6000602082019050818103600083015261295481612918565b9050919050565b7f4e487b7100000000000000000000000000000000000000000000000000000000600052603260045260246000fd5b7f4552433732313a206f776e657220717565727920666f72206e6f6e657869737460008201527f656e7420746f6b656e0000000000000000000000000000000000000000000000602082015250565b60006129e6602983611fa8565b91506129f18261298a565b604082019050919050565b60006020820190508181036000830152612a15816129d9565b9050919050565b7f4552433732313a2062616c616e636520717565727920666f7220746865207a6560008201527f726f206164647265737300000000000000000000000000000000000000000000602082015250565b6000612a78602a83611fa8565b9150612a8382612a1c565b604082019050919050565b60006020820190508181036000830152612aa781612a6b565b9050919050565b7f4f776e61626c653a2063616c6c6572206973206e6f7420746865206f776e6572600082015250565b6000612ae4602083611fa8565b9150612aef82612aae565b602082019050919050565b60006020820190508181036000830152612b1381612ad7565b9050919050565b7f4552433732313a20617070726f766520746f2063616c6c657200000000000000600082015250565b6000612b50601983611fa8565b9150612b5b82612b1a565b602082019050919050565b60006020820190508181036000830152612b7f81612b43565b9050919050565b7f4f776e61626c653a206e6577206f776e657220697320746865207a65726f206160008201527f6464726573730000000000000000000000000000000000000000000000000000602082015250565b6000612be2602683611fa8565b9150612bed82612b86565b604082019050919050565b60006020820190508181036000830152612c1181612bd5565b9050919050565b7f4552433732313a206d696e7420746f20746865207a65726f2061646472657373600082015250565b6000612c4e602083611fa8565b9150612c5982612c18565b602082019050919050565b60006020820190508181036000830152612c7d81612c41565b9050919050565b7f4552433732313a20746f6b656e20616c7265616479206d696e74656400000000600082015250565b6000612cba601c83611fa8565b9150612cc582612c84565b602082019050919050565b60006020820190508181036000830152612ce981612cad565b9050919050565b7f4e487b7100000000000000000000000000000000000000000000000000000000600052601160045260246000fd5b6000612d2a82612058565b9150612d3583612058565b9250827fffffffffffffffffffffffffffffffffffffffffffffffffffffffffffffffff03821115612d6a57612d69612cf0565b5b828201905092915050565b7f45524337323155524953746f726167653a2055524920736574206f66206e6f6e60008201527f6578697374656e7420746f6b656e000000000000000000000000000000000000602082015250565b6000612dd1602e83611fa8565b9150612ddc82612d75565b604082019050919050565b60006020820190508181036000830152612e0081612dc4565b9050919050565b7f4552433732313a206f70657261746f7220717565727920666f72206e6f6e657860008201527f697374656e7420746f6b656e0000000000000000000000000000000000000000602082015250565b6000612e63602c83611fa8565b9150612e6e82612e07565b604082019050919050565b60006020820190508181036000830152612e9281612e56565b9050919050565b7f4552433732313a207472616e73666572206f6620746f6b656e2074686174206960008201527f73206e6f74206f776e0000000000000000000000000000000000000000000000602082015250565b6000612ef5602983611fa8565b9150612f0082612e99565b604082019050919050565b60006020820190508181036000830152612f2481612ee8565b9050919050565b7f4552433732313a207472616e7366657220746f20746865207a65726f2061646460008201527f7265737300000000000000000000000000000000000000000000000000000000602082015250565b6000612f87602483611fa8565b9150612f9282612f2b565b604082019050919050565b60006020820190508181036000830152612fb681612f7a565b9050919050565b6000612fc882612058565b9150612fd383612058565b925082821015612fe657612fe5612cf0565b5b828203905092915050565b7f4552433732313a207472616e7366657220746f206e6f6e20455243373231526560008201527f63656976657220696d706c656d656e7465720000000000000000000000000000602082015250565b600061304d603283611fa8565b915061305882612ff1565b604082019050919050565b6000602082019050818103600083015261307c81613040565b9050919050565b7f45524337323155524953746f726167653a2055524920717565727920666f722060008201527f6e6f6e6578697374656e7420746f6b656e000000000000000000000000000000602082015250565b60006130df603183611fa8565b91506130ea82613083565b604082019050919050565b6000602082019050818103600083015261310e816130d2565b9050919050565b600081905092915050565b600061312b82611f9d565b6131358185613115565b9350613145818560208601611fb9565b80840191505092915050565b600061315d8285613120565b91506131698284613120565b91508190509392505050565b600081519050919050565b600082825260208201905092915050565b600061319c82613175565b6131a68185613180565b93506131b6818560208601611fb9565b6131bf81611fec565b840191505092915050565b60006080820190506131df60008301876120ed565b6131ec60208301866120ed565b6131f96040830185612314565b818103606083015261320b8184613191565b905095945050505050565b60008151905061322581611f0e565b92915050565b60006020828403121561324157613240611ed8565b5b600061324f84828501613216565b91505092915050565b7f4552433732314d657461646174613a2055524920717565727920666f72206e6f60008201527f6e6578697374656e7420746f6b656e0000000000000000000000000000000000602082015250565b60006132b4602f83611fa8565b91506132bf82613258565b604082019050919050565b600060208201905081810360008301526132e3816132a7565b9050919050565b60006132f582612058565b91507fffffffffffffffffffffffffffffffffffffffffffffffffffffffffffffffff82141561332857613327612cf0565b5b600182019050919050565b7f4e487b7100000000000000000000000000000000000000000000000000000000600052601260045260246000fd5b600061336d82612058565b915061337883612058565b92508261338857613387613333565b5b828204905092915050565b600061339e82612058565b91506133a983612058565b9250826133b9576133b8613333565b5b82820690509291505056fea26469706673582212209988d907d9c1bda61a72b826464d096dafa4aa4d755aec6ec925340b9981848564736f6c63430008090033",
  "linkReferences": {},
  "deployedLinkReferences": {}
}